S00F00006932635F7363616E2E733337E3
S315080000000010002065200008A3940008A3940008A7
S31508000010A3940008A3940008A3940008A3940008D6
S31508000020A3940008A3940008A3940008A3940008C6
S31508000030A3940008A3940008A3940008A3940008B6
S31508000040A3940008A3940008A3940008A3940008A6
S31508000050A3940008A3940008A3940008A394000896
S31508000060A39400086D1700087B940008A394000861
S31508000070A3940008A916000877940008A39400081A
S31508000080A3940008A3940008A3940008A394000866
S31508000090A394000831280008A3940008A394000834
S315080000A0A3940008A3940008A3940008A394000846
S315080000B0A3940008A3940008A3940008A394000836
S315080000C0A3940008A3940008A3940008A394000826
S315080000D0A3940008A3940008A3940008A394000816
S315080000E0A3940008A3940008A3940008A394000806
S315080000F0A3940008A3940008A3940008A3940008F6
S31508000100A394000879010008A3940008A3940008A2
S31508000110A3940008A3940008A3940008A3940008D5
S31508000120A3940008A3940008A3940008A3940008C5
S31508000130A3940008A3940008A3940008A3940008B5
S31508000140A3940008A3940008A39400088D990008B6
S31508000150A3940008A3940008A3940008A394000895
S31508000160A3940008A3940008A3940008A394000885
S31508000170013800D0FCE770472DE9F74319A5D5E902
S3150800018000451AA7D7E900672022134BDFF86480D9
S31508000190C3F8A020D8F888301B0705D102220F4BD8
S315080001A05A6203B0BDE8F0834146684609F035FA5D
S315080001B0009806F061FD22462B4606F0D7FD3B4621
S315080001C0324606F0FDFE9DF80490054B03EBC90385
S315080001D0C3E90001DEE700BF00F0035000600059E4
S315080001E0281200206666666666660A4000000000F9
S315080001F000FEAF400040005910B51BA3D3E9002309
S3150800020015490446D1E9000106F0F8FB0022134B14
S3150800021006F0ACFD0EA3D3E9002306F0D1FE07F0E5
S3150800022067F807EE900AF5EEC07AF1EE10FAB8BF55
S31508000230DFED0B7AC4ED007A17EE900A06F03EFD64
S31508000240BDE8104002460B46064807F015BE00BF3B
S31508000250F6285C8FC2F5FC3F2812002000002E40CD
S315080002600000000034A20008AE47E17A14AEEF3F62
S3150800027010B510A3D3E900230B490446D1E90201BE
S3150800028006F09EFE0022094B06F070FD07F030F8D6
S31508000290206006F013FDBDE8104002460B460448F0
S315080002A007F0EABDAFF3008028120020000059408D
S315080002B03DA200086666666666660A40000000009B
S315080002C02DE9F04F456A044610EE10AA2DED048B71
S315080002D093B057EC106BDDF88080BB460691099207
S315080002E00C9375B9102008F087F80246606220B9A9
S315080002F0A74BEA21A74808F097FFC0E90155056012
S31508000300C560636A196851B15A680123204693404B
S315080003104A608B6008F0B8F8636A00221A603B1ED0
S31508000320ADBF0023012223F0004BC8F800309A4BDA
S31508000330B8BFC8F8002033EA0B031BD142F20F738B
S315080003400C9A1360CBF31303334300F08F85219B7C
S3150800035063B9924B22E0924B01930833219A1360BA
S31508000360019813B0BDEC048BBDE8F08F8B4B01935D
S315080003700333F3E7002200235046594606F05EFF92
S3150800038080464BEC19AB58B101230C9A1360219B9C
S31508000390002B00F0688583481860431E0193DFE749
S315080003A0CBF30A5510AA11A920464BEC10AB08F05E
S315080003B0EDFA08EE100A002D00F0828019EE903A48
S315080003C05646A5F2FF35CDF83880C3F3130343F03C
S315080003D07F5747F440170022734B3046394606F0DC
S315080003E00DFB65A3D3E9002306F0C0FC64A3D3E99B
S315080003F0002306F005FB06460F46284606F04CFC89
S3150800040061A3D3E9002306F0B1FC02460B46304649
S31508000410394606F0F5FA06460F4606F041FF002271
S31508000420009000233046394606F012FF50B1009876
S3150800043006F032FC32463B4606F000FF10B9009B38
S31508000440013B0093009B162B59D8009A574B03EB98
S31508000450C20351EC190BD3E9002306F0F9FE002874
S315080004604FD0009B013B009300230B93109B5D1B11
S315080004706B1E059349BFC5F10103002304930023AE
S3150800048054BF04930593009B002B3CDB059B009A05
S3150800049013440A92059300230793069B092B00F23F
S315080004A08980052BC5BF043B002501250693069BBD
S315080004B0023B032B00F28980DFE803F02E3B395A12
S315080004C0DDE910531D4405F23243202BC6BFC3F1A4
S315080004D0400305F21240C3F1200305F1FF35C5BFFD
S315080004E00BFA03F326FA00F006FA03F0184306F0AF
S315080004F0C3FB01230646A1F1F8770E936BE70123A8
S31508000500B3E70B90B2E7049B009A9B1A04935342F5
S31508000510079300230A93C0E700230893099B002B3F
S3150800052056DC01231A46CDE9023309920CE0012371
S31508000530F3E70023099A0893009B134402930133B7
S31508000540012B0393B8BF01230022606A426004228C
S3150800055002F1140641689E423ED9204607F054FF30
S31508000560019000283CD1124B02464FF4D571C1E6E2
S315080005700123DFE7AFF3008061436F63A787D23FAC
S31508000580B3C8608B288AC63FFB799F501344D33F74
S315080005901BAC000832AC00080000F07F17AC00085E
S315080005A00EAC0008B5A200080000F83FD0AD000860
S315080005B0B0AC000801250023089506934FF0FF33D9
S315080005C00022CDE902331223AFE701230893F5E7AA
S315080005D0099BCDE90233B7E7013152004160B7E71D
S315080005E0636A019A1A60039B0E2B00F29D80002D08
S315080005F000F09A80009B002B32DD03F00F03B64A09
S3150800060002EBC303D3E90089009BD8054FEA2317F9
S3150800061016D5B24B07F00F070325D3E9082351EC8B
S31508000620190B06F0CDFC82468B46AC4E57B94246AE
S315080006304B465046594606F0C3FC82468B4628E090
S315080006400225F2E7F90708D5404649460135D6E9B5
S31508000650002306F08BFB804689467F100836E5E7BF
S3150800066000F09B80009B02259C4F5E429A4B06F049
S315080006700F02361103EBC20351EC190BD3E9002321
S3150800068006F074FB002382468B46002E7AD1002B97
S31508000690D3D10B9B002B00F082800022904B504652
S315080006A0594606F0D5FD002879D0039B002B76D055
S315080006B0029B002B36DD009B5046594600225F1EE2
S315080006C0884B06F053FB013582468B46029E284628
S315080006D0D04606F0E1FA52465B46D94606F046FB96
S315080006E00022814B06F08CF98246A1F1507B002E40
S315080006F058D100227D4B4046494606F07FF95246BE
S315080007005B468046894606F0C1FD002840F0938284
S3150800071052460BF100434046494606F099FD00282B
S3150800072040F087825BEC19AB119B002BC0F2488125
S31508000730009A0E2A00F34481674B03EBC203D3E900
S315080007400089099B002B80F2D580039B002B00F3C0
S31508000750D18040F06D820022644B4046494606F03F
S3150800076005FB52465B4606F087FD039E3746002882
S3150800077040F043823123019D05F8013B009B01337C
S3150800078000933EE2F20705D50135D7E9002306F0C6
S31508000790EDFA01237610083777E7022579E7009FF7
S315080007A0039E94E701994C4B314403EBC6030D9124
S315080007B0089953E90223002943D000204C4906F042
S315080007C0FFFB52465B4606F019F9019D82468B46A9
S315080007D04946404606F064FD064606F05DFA0246BE
S315080007E030360B464046494606F008F952465B46FF
S315080007F005F8016B8046894606F02AFD002863D174
S3150800080042464B460020364906F0F8F852465B4603
S3150800081006F01EFD002840F0B5800D9B9D4281D054
S315080008200022304B5046594606F0A0FA002282466E
S315080008308B46404649462B4B06F098FA8046894631
S31508000840C6E75046594606F091FA0D9B82468B46F6
S31508000850019D0F934946404606F022FD064606F0DE
S315080008601BFA02460B4640464946303606F0C6F89D
S315080008700D9B05F8016B80469D4289464FF00002A4
S3150800088024D11B4B5046594606F0BAF802460B4689
S315080008904046494606F0FAFC002873D152465B46A4
S315080008A00020134906F0AAF802460B464046494678
S315080008B006F0CEFC00283FF435AF0F9D6B1E0F9354
S315080008C015F8013C302BF8D0009749E0054B06F0A7
S315080008D04DFA80468946BDE7D0AD0008A8AD0008A8
S315080008E00000F03F0000244000001C4000001440B7
S315080008F00000E03F56465F46019D42464B4630465D
S31508000900394606F05DFB06F0CBFC824606F0C4F9D4
S3150800091042464B4606F02AFA024630460AF13006A7
S315080009200B46394606F06AF805F8016B019E024641
S31508000930039F0B46AE1BB74235D106F061F8424617
S315080009404B4606460F4606F0A1FCD0B942464B4632
S315080009503046394606F072FC10B11AF0010F10D174
S31508000960204618EE101A07F08FFD002300982B700A
S3150800097001300C9B1860219B002B3FF4F1AC1D60E5
S31508000980EEE4009F2B461D4613F8012D392A06D1A1
S31508000990019A9A42F7D13022019901370A701A78DA
S315080009A001321A7090E70022A44B06F0DFF9002204
S315080009B0002306460F4606F041FC00289DD0CFE7E7
S315080009C0089A002A00F0D580069A012A00F3B98011
S315080009D00E9A002A00F0B18003F23343079E049D65
S315080009E0049A012120461A440492059A1A4405924B
S315080009F007F0B4FD0746002D0CDD059B002B09DD2D
S31508000A00AB42049AA8BF2B46D21AED1A0492059A4D
S31508000A10D31A0593079B1BB3089B002B00F0AD80E8
S31508000A20002E13DD39463246204607F055FE18EEED
S31508000A30102A01460746204607F0A6FD804618EE0E
S31508000A40101A204608EE108A07F01EFD079B9A1B0F
S31508000A5006D018EE101A204607F03EFE08EE100AD9
S31508000A600121204607F07AFD0A9B0646002B40F333
S31508000A7086801A460146204607F02EFE069B064645
S31508000A80012B7FDD4FF00008336906EB83031869F5
S31508000A9009F0DAF9C0F12000059B184410F01F0090
S31508000AA000F09180C0F12003042B40F38980C0F147
S31508000AB01C00049B054403440493059B03440593C7
S31508000AC0049B002B07DD18EE101A1A46204607F07D
S31508000AD05DFE08EE100A059B002B05DD31461A4619
S31508000AE0204607F053FE06460B9B002B6DD0314679
S31508000AF018EE100A09F0F7F9002866DA009B18EED6
S31508000B00101A0A222046013B0093002307F0DEFC58
S31508000B10089B08EE100A002B00F0AF810023394627
S31508000B200A22204607F0D2FC029B0746002B00F358
S31508000B308D80069B022B50DC88E0109BC3F13603A0
S31508000B404CE7039B5E1E079BB342B7BF079B9E1BE2
S31508000B500796F21ABFBF0A9B00269B180A93039BA7
S31508000B60002BB7BFDDE90323DDE903359D1A002312
S31508000B7036E7079E049D089F3DE7079A69E7069BA7
S31508000B80012B18DCBAF1000F15D1CBF3130393B977
S31508000B902BF000431B0D1B0583B1049B4FF0010886
S31508000BA001330493059B013305930A9B002B7FF4BD
S31508000BB06BAF012070E74FF00008F6E79846F4E7B8
S31508000BC03FF47EAF18461C3073E7039B002B37DCD7
S31508000BD0069B022B34DD039B0293029B6BB93146BD
S31508000BE00522204607F072FC0146064618EE100A52
S31508000BF009F079F900283FF7BDAD099B019DDB4354
S31508000C0000934FF000083146204607F03DFC002FC0
S31508000C103FF4A6AEB8F1000F05D0B84503D041465B
S31508000C20204607F031FC3946204607F02DFC97E6AA
S31508000C3000263746E1E7009737469BE50000244043
S31508000C40089B002B00F0CA80039B0293002D05DD4C
S31508000C5039462A46204607F099FD0746B8F1000F9F
S31508000C605BD07968204607F0CFFB054628B9874B45
S31508000C70024640F2EA21FFF73DBB3A6907F10C014B
S31508000C800C300232920008F0B6FE012229462046B0
S31508000C9007F07CFD019BB846074603F10109DDE92B
S31508000CA00123134405930AF001030493314618EE11
S31508000CB0100A08F0CDFF4146029000F1300A18EEFE
S31508000CC0100A09F1FF3B09F00EF93A46039031463E
S31508000CD0204607F0CBFDC268054602BB014618EE62
S31508000CE0100A09F000F9024629462046079207F03D
S31508000CF0CBFB4D46DDE9063243EA0201049B0B4372
S31508000D000FD1BAF1390F2AD0039B002B02DD029BC3
S31508000D1003F1310A8BF800A075E73846BAE70122D5
S31508000D20E2E7039B002B04DB06990B4304990B436C
S31508000D3022D1002AEEDD18EE101A0122204607F00D
S31508000D4025FD314608EE100A09F0CDF8002803DC27
S31508000D50E0D11AF0010FDDD0BAF1390FD7D1392316
S31508000D608BF800302B461D46013B15F8012C392A15
S31508000D7070D001321A7046E7002A07DDBAF1390F3A
S31508000D80EDD00AF101038BF800303CE7059B09F822
S31508000D9001AC994546D018EE101A00230A222046BF
S31508000DA007F094FBB84508EE100A4FF000034FF021
S31508000DB00A024146204606D107F088FB80460746C8
S31508000DC009F1010972E707F081FB394680460023DD
S31508000DD00A22204607F07AFB0746F1E7039B0293AF
S31508000DE0019D314618EE100A08F032FF019B00F10A
S31508000DF0300A05F801ABEA1A029B934209DD18EEA0
S31508000E00101A00230A22204607F060FB08EE100A93
S31508000E10E7E7029B4FF00008002BCCBF1D460125D3
S31508000E20019B1D4418EE101A0122204607F0AEFC5D
S31508000E30314608EE100A09F056F8002892DC02D16D
S31508000E401AF0010F8ED12B461D4613F8012D302AB4
S31508000E50FAD0D8E6019A9A4285D1009B01330093CD
S31508000E6031231370CFE60A4BFFF798BA219B002B64
S31508000E707FF471AA074BFFF791BA029B002BAFDCF0
S31508000E80069B022B3FF7A9AEAAE700BFB0AC000845
S31508000E90B4A200080EAC000810B5054C237833B987
S31508000EA0044B13B1044800E000BF0123237010BDB2
S31508000EB03812002000000000FCAE000808B5034BFD
S31508000EC01BB10349034800E000BF08BD000000004D
S31508000ED03C120020FCAE0008A3F5803A704700BF1C
S31508000EE0174B002B08BF134B9D46FFF7F5FF002154
S31508000EF08B460F461348144A121A08F089FD0E4B02
S31508000F00002B00D098470D4B002B00D098470020A7
S31508000F10002104000D000D48002802D00C4800E00E
S31508000F2000BF06F029FC2000290008F069FA06F03F
S31508000F300FFC00BF000008000000000000000000D1
S31508000F400010002028120020801600200000000053
S31508000F5000000000F0B5A7B0564E08AC0FCE0FC47F
S31508000F600FCE0FC496E80300002584E80300032784
S31508000F7001245022294612A84F4ECDE9055507955A
S31508000F808DF80C508DF80D508DF80E708DF80F50A9
S31508000F908DF810508DF811508DF8125008F038FD64
S31508000FA021462A208DF848408DF84D408DF852404C
S31508000FB08DF857408DF85C408DF861408DF8664095
S31508000FC08DF86B408DF870408DF875408DF87A4035
S31508000FD08DF87F408DF884408DF889408DF88E40D5
S31508000FE08DF8934001F048FF10214FF4B06002F0ED
S31508000FF0D7FB2A46314930468DF8175003F050FE84
S315080010008DF819004FF4B06001F062FF4FF47A735F
S31508001010B0FBF3F040F272630B9302238DF8233092
S315080010209DF819302A46ADF81A00009330462B462B
S3150800103023498DF824708DF8215003F05FFE902324
S315080010408DF8493091230A9008AA304605A98DF8EB
S315080010504E308DF810408DF80E408DF80D408DF805
S3150800106048408DF84C408DF84D408DF8514003F0BE
S3150800107097FE12AA304603A903F070FD4FF4803399
S31508001080F360104BD3F824232243C3F82423D3F860
S31508001090242342F48032C3F824234FF40032B36A7F
S315080010A043F00203B362084BC3F884215A6027B0A1
S315080010B0F0BD00BF4CA2000800400059005A620269
S315080010C08096980000C0035000E100E008B508F0DB
S315080010D06DF9FFF73FFF0822014BDA6008BD00BF34
S315080010E0004000590122014B1A7070477C150020F8
S315080010F037B5144B0125186800F0C2F801211248CB
S3150800110000F0DAF92323114C2370114BA5701868E7
S31508001110657000F083F8206808F04EF978B90D4834
S3150800112006F0AAFEFFF7D2FF00234EF660210A4A10
S3150800113001950093094805F0AFFA03B030BD084899
S31508001140EEE700BF2C1000206E1500207815002051
S315080011502810002074A20008E51000086412002078
S3150800116087A200082DE9F041184E337853B3184882
S3150800117000F09CF8174D184B2846196800F05AF8E5
S3150800118018B92988154806F077FE154FDFF85880F4
S31508001190144C3846FFF730F84046FFF769F8204602
S315080011A000F0A6F90A4B98ED002AD7ED001A93ED40
S315080011B0000AD3ED010A93ED021A2A8820686168AD
S315080011C000F0B2F800233370BDE8F0817C150020EA
S315080011D0581200206C150020781500209BA20008E4
S315080011E0841200206E150020541200207FB50123BA
S315080011F0ADF80630ADF80C30074B4000ADF80400EA
S315080012000291186801A901F0EFF8003818BF01200B
S31508001210404207B05DF804FB8812002010B504466A
S31508001220022005F0FFF9024B00201C6010BD00BF2C
S315080012308812002010B588B00223ADF80E30ADF83C
S31508001240143002AB01910493C9B20C4B4900044611
S31508001250ADF80C10186803A901F0C6F858B90A22A7
S31508001260BDF808305BBA9BB253430C22B3FBF2F3CA
S31508001270238008B010BD0120FBE700BF88120020BC
S3150800128008B500F02BFE30B12D2806D10448BDE87C
S31508001290084006F0F1BD0348F9E70348F7E700BF41
S315080012A0A5A20008B6A20008BEA20008F0B58BB039
S315080012B01A4E054607A9306800F05EFE08A90446DE
S315080012C0306800F083FE09A90443306800F0B0FED8
S315080012D0079B099F089E54EA00022B606F60AE6068
S315080012E017D1184605F0EAFC02460B463846CDE902
S315080012F0042305F0E3FCCDE90201304605F0DEFCE7
S31508001300DDE90423CDE90001054806F0B5FD0BB07B
S31508001310F0BD044806F0B0FDF9E700BF2C10002028
S31508001320C8A20008EFA200082DE9F04196B011AB5B
S3150800133083E8030010EE100A10EE905A11EE106AB8
S3150800134011EE907A12EE108A144605F0B7FC0246A2
S315080013500B46A4B24046CDE90E230C9405F0AEFC2C
S31508001360CDE90A01384605F0A9FCCDE90801BDF822
S31508001370481030460691BDF846100591BDF8441050
S31508001380049105F09BFCCDE90201284605F096FC80
S31508001390DDE90E23CDE900010B490C4806F048FEAD
S315080013A00B4B32220949186808F046F9044638B941
S315080013B00649084806F060FD204616B0BDE8F081EB
S315080013C0054806F059FDF7E7FBA200087D15002041
S315080013D03010002020A300082FA300082DE9F347AA
S315080013E006460F4605F0F2F84FF0000A04460D4689
S315080013F0DFF83C905FFA8AF8B8450BD205F0E6F8B4
S31508001400031B61EB0501B3F57A7F71F100030AF15D
S31508001410010A02D302B0BDE8F087D9F800000DF141
S31508001420070108F036F99DF8073006F80830E1E7B5
S315080014303010002038B58022002104461D4808F0E7
S31508001440E7FA80211B48FFF7C9FF1A480021024620
S3150800145010F8015B0B46422D01F1010125D10578F3
S315080014604D2D22D1A17900290CBF04210A2151FA58
S3150800147083F3DBB2581CC0B2D55C115CD81C01EBF7
S3150800148005212180991CC9B2C0B2555C115C0120A6
S3150800149001EB05216180191D0533C9B2DBB2515C28
S315080014A0D35C03EB0123A38038BD6829D0D1002083
S315080014B0FAE700BFAF15002070B50D4604460A4886
S315080014C006F0DAFCA5710B25084E2046FFF7B2FF99
S315080014D0012801D0013D00D170BD304606F0CCFC94
S315080014E0642005F09FF8F0E742A3000851A300081E
S315080014F010B50446FFF79EFF38B1A3886288218895
S315080015000448BDE8104006F0B7BC0348BDE81040E3
S3150800151006F0B2BC62A3000851A3000810B5274C18
S3150800152001F0FCFE02F01AF9236F23F0070343F0DB
S315080015300303236707F0FDFF214B00209B6ADB01AD
S315080015405EBF4FF480321F4B9A62D4F8203123F0E5
S31508001550070343F00203C4F82031D4F8283123F0F6
S31508001560070343F00203C4F82831D4F8403123F0C6
S31508001570030343F00203C4F84031D4F8603123F082
S31508001580030343F00203C4F86031D4F8403223F071
S31508001590030343F00203C4F84032D4F8003223F0C0
S315080015A0070343F00203C4F80032D4F8083223F0E4
S315080015B0070343F00203C4F8083210BD0080005048
S315080015C00040005A0060005A08B501213A2001F08F
S315080015D053FC044800F052FEBDE80840024800F0FB
S315080015E04DBE00BF001000201410002030B59DB07D
S315080015F0264D08AC0FCD0FC495E80F0084E80F0000
S315080016004FF416532822002111A80A9308F000FA6D
S315080016101F4B012410935723CDE9123402238DF86A
S315080016205030159303238DF8583005231793092353
S3150800163010221993082300210DEB02008DF845406E
S315080016401B9308F0E5F94FF48010124B08AACDE970
S3150800165002030D238DF810300E238DF811300E4B32
S315080016600E480593202306930D4B02A9009310AB51
S315080016708DF81D4004F02CFA044618B17921094862
S3150800168007F018FF20461DB030BD00BFB4A3000800
S3150800169000000A503C000A502F160020F0120020C5
S315080016A08C12002085A30008014808F04CB800BF3A
S315080016B0F012002030B595B01E4D0DAC0FCD0FC4FD
S315080016C095E80700292384E807001B4A0021CDE98D
S315080016D002230523CDE904118DF8113006231022C3
S315080016E009A806918DF8133008F092F94FF4802175
S315080016F0124B1348CDE9071309238DF824300A2322
S315080017008DF825300F4B0DAA0A9320230B9301233E
S315080017108DF831300C4B07A9009302AB04F080FD1D
S31508001720044618B18521094807F0C4FE204615B0BD
S3150800173030BD00BF04A4000800C0055024C00550F1
S31508001740541300204F16002008130020D4A30008C5
S3150800175008B5FFF7AFFF28B1BDE808409721024852
S3150800176007F0A8BE08BD00BFD4A30008014808F0CA
S3150800177090B800BF5413002008B50122074B1A7011
S315080017800022074B1A700422064B1A701F22064BBA
S315080017901A7004F091F9054B186008BD1A1200205A
S315080017A06F1600201B1200201C1200206C1300204C
S315080017B037B5114B04461A889B78ADF804208DF886
S315080017C006300E4B1868A0B10323456B01AAFA210F
S315080017D090F82900A8479DF805309DF804201B01BC
S315080017E043EA02339DF8062043EA1213236003B046
S315080017F030BD6FF07E00FAE720A4000870130020C1
S3150800180010B50D4B1C6822885100C2EB2013C1EBA2
S31508001810E002B4F90200424303FB03F0B4F90430D2
S3150800182000135843801300EBE220606200EB80004F
S315080018308030001210BD00BF7013002037B5114B61
S3150800184004461A889B78ADF804208DF806300E4BAE
S315080018501868A0B10323456B01AAF72190F829005F
S31508001860A8479DF805309DF804201B0143EA02337A
S315080018709DF8062043EA1213236003B030BD6FF0CB
S315080018807E00FAE720A400087013002073B5184BF1
S315080018900546D3F80300B3F807300090ADF80430D6
S315080018A0144B0C46186800B306236A46466BF721A4
S315080018B090F82900B0479DF801309DF800201B01DB
S315080018C043EA02339DF8022043EA12132B609DF87F
S315080018D004309DF803201B0143EA02339DF80520D6
S315080018E043EA1213236002B070BD6FF07E00FAE778
S315080018F020A400087013002037B50023ADF8043083
S315080019000A4B0446186868B10223456BFD2190F816
S31508001910290001AAA847BDF804305BBA9BB2236028
S3150800192003B030BD6FF07E00FAE700BF70130020E9
S3150800193010B51B4B19684A6AA2F59634B1F91E20F0
S315080019401205C2EB8030B1F9202004FB120000F525
S315080019508040C31391F91C0091F922206043624329
S31508001960C012921200F500405043B1F91A208012B5
S3150800197000F50010504300F5005080135843C31378
S315080019805B4391F91820DB115343A0EB231020EA9F
S31508001990E070B0F1C85FA8BF4FF0C850001310BD83
S315080019A07013002070B588B001AC2246214B03F1B4
S315080019B01806254618685968083303C5B3422C46E5
S315080019C0F7D11B881C4C2B80206878B31823456BED
S315080019D0882190F82900A8472368BDF804201A80B2
S315080019E0BDF806205A80BDF808209A80BDF80A205E
S315080019F0DA80BDF80C201A81BDF80E205A81BDF890
S31508001A0010209A81BDF81220DA81BDF814201A82B6
S31508001A10BDF816205A82BDF818209A82BDF81A20F9
S31508001A20DA829DF81D201A7608B070BD6FF07E0028
S31508001A30FAE700BF29A400087013002037B51A4B2F
S31508001A401A4CD3F82300B3F82720009093F82930CE
S31508001A502068ADF804208DF8063010B307236A46CF
S31508001A60E121456B90F82900A8472268BDF80030A7
S31508001A709DF9034053839DF8023013779DF804308F
S31508001A8003F00F0141EA0411D1839DF905101B09E2
S31508001A9043EA011313849DF8063082F8223003B016
S31508001AA030BD6FF07E00FAE720A40008701300200E
S31508001AB073B500230524174D8DF80730286028686C
S31508001AC00123466B0DF10702D02190F82900B04793
S31508001AD09DF80730A3F15602022A09D9602B2A6815
S31508001AE006D0013CE4B20120936B9847002CE6D15E
S31508001AF02B689DF8072083F8282044B1FFF752FF8A
S31508001B000446FFF79BFF204440B202B070BD4FF079
S31508001B10FF30FAE77013002037B50F4B1C68ACB1DD
S31508001B20032816D894F82A30F42100EB431094F8C9
S31508001B302B30256B00EB83008DF80700012394F802
S31508001B4029000DF10702A84703B030BD6FF07E00EB
S31508001B50FAE76FF00100F7E770130020F7B50023E6
S31508001B60384E054630688DF806308DF8073000285F
S31508001B7061D0042D62D8446B0123F4210DF10602CD
S31508001B8090F82900A047044630680123476BF221E4
S31508001B9090F829000DF10702B847044360B20028FF
S31508001BA03BD1013D01233468032D03D8DFE805F056
S31508001BB0373A3D4040F2011284F82C309DF8073040
S31508001BC0256B23F0070343F001036285F22194F89D
S31508001BD029008DF807300DF107020123A8470446AE
S31508001BE030689DF8063090F82A2003F01F0343EA70
S31508001BF0421390F82B2023F01C03920002F01C02DB
S31508001C001343056B8DF80630F421012390F829005B
S31508001C100DF10602A847204440B203B0F0BD40F2D9
S31508001C200122C9E740F20132C6E740F20142C3E7A2
S31508001C3040F20252C0E76FF07E00EEE76FF0010057
S31508001C40EBE700BF701300202DE9F843544B074615
S31508001C501D68696AB5F908304FEAE17CB1F5FA31D1
S31508001C604CF1FF3C03FB0CF2D81701FB0022A3FB47
S31508001C700130A1FB014801FB0CF6024412031803CC
S31508001C8042EA1352B5F90A3008EB460803FB08F690
S31508001C904FEAE37E04FB0E66A3FB043E76441B0A6A
S31508001CA0B5F806E043EA06631B1842EB2622A3FBB7
S31508001CB00E3602F500420EFB0266F317721053EA5F
S31508001CC066064FF0000069D0B5F910E0C7F5801731
S31508001CD00EFB08F64FEAEE7904FB0966AEFB04E450
S31508001CE02644B5F90E4004FB0CFC4FEAE47801FBE8
S31508001CF008CCA4FB01416144490441EAD431640497
S31508001D0014EB0E0446EB0101B5F90C6007F0004C24
S31508001D1001EBC60140F635464CEA570C0019FF0799
S31508001D20381A6CEB010CA0FB060106FB0C1105F03A
S31508001D302FFB8646B5F916204FEA613C02FB0CF7E5
S31508001D40430B43EAC143D41703FB0477A2FB0324DE
S31508001D503C4402FB0CF703FB0477A2FB0323B5F90B
S31508001D6014601F4406FB01F4530E43EAC7131B18FD
S31508001D704FEAE67241EB676702FB0041A6FB0E06D7
S31508001D803144C00C40EA4130181847EBE141B5F937
S31508001D901230000A40EA016000EB0310BDE8F88340
S31508001DA0701300200F4B1B6893F82B1093F82A200A
S31508001DB0012303FA02F28B405B1003EB6203252230
S31508001DC0002902FB03F314BF0A220022143313442A
S31508001DD013F10F0248BF03F11E0212110270002010
S31508001DE0704700BF701300202DE9F3410023184FF8
S31508001DF005463C680E468DF807302CB394F82B3010
S31508001E0094F82A209B0003EB42130133F4210DF1C9
S31508001E100602D4F8308094F829008DF8063001239C
S31508001E20C04704460DF10700FFF7BCFF3B689DF865
S31508001E3007009B6B984731462846FFF727FD204445
S31508001E4040B202B0BDE8F0816FF07E00F9E700BF4E
S31508001E507013002000B589B08DF807100421ADF87D
S31508001E600E100121ADF81C300A4BADF814104000D5
S31508001E700DF10701ADF80C000491186803A9069244
S31508001E8000F0B2FA003818BF0120404209B05DF8E8
S31508001E9004FB00BFB013002000B589B08DF8071009
S31508001EA00821ADF80E100121ADF81C300A4BADF82B
S31508001EB0141040000DF10701ADF80C0004911868E4
S31508001EC003A9069200F090FA003818BF0120404294
S31508001ED009B05DF804FB00BFB013002070B586B0EA
S31508001EE00546022004F09EFB1B4B01241D60D023EF
S31508001EF08DF80330194B1A4E019328460DF103034A
S31508001F0001A90293ADF80C40ADF81440049600F010
S31508001F106BFA3378602B1CD11248134B0363134BAF
S31508001F204363762380F82930114B8363FFF7C0FD9E
S31508001F3010B1012006B070BD2046FFF7EDFD002860
S31508001F40F7D10420FFF70AFE0028F2D1094B1C70CE
S31508001F50F0E72D20EEE700BFB0130020EC000400E8
S31508001F607016002074130020991E0008551E0008DC
S31508001F709D9400087116002037B5114B0D46186060
S31508001F80104B1B78032B14D16846FFF711FC044647
S31508001F90A0B90098FFF734FC07EE900ADFED0A6A4D
S31508001FA0F8EEE77A87EEA67A204685ED007A03B042
S31508001FB030BD694601A8FFF717FFE8E70120F6E7F5
S31508001FC0B0130020711600200000C84237B5154B23
S31508001FD00D461860144B1B78032B1ED101A8FFF77A
S31508001FE02DFC10B1012003B030BD6846FFF7E0FBB9
S31508001FF004460028F6D10098FFF702FC0198FFF77F
S3150800200023FE07EE900ADFED096AFBEECC7A87EE2F
S31508002010A67A204685ED007AE5E7694601A8FFF726
S31508002020E3FEE5E7B0130020711600200000C84261
S3150800203037B50B4B0D46186001A8FFF75DFC044643
S3150800204058B90198FFF774FC07EE900AFAEECB7AB6
S315080020502046C5ED007A03B030BD0120FBE700BF7E
S31508002060B013002008B500F02DF8124B12498B4228
S3150800207012D30020114B12498B4218D3FEF730FFBA
S31508002080186850F82240586840F82240013298688B
S315080020908242F5D30C33EAE70022F8E71C6844F8D5
S315080020A0220001325C68A242F8D30833E4E7002232
S315080020B0F8E700BF04AF000810AF000810AF00082B
S315080020C010AF000810B54FF480414FF0FF30114BA8
S315080020D0114A9A60D3F8882042F47002C3F888201F
S315080020E00E4A91660E4901F5005210660D48506673
S315080020F00220C3F8D000BFF34F8FBFF36F8F0124C0
S315080021004FF440330848C0F88041D36004600B613F
S3150800211010BD00BF00ED00E0000000080090005070
S3150800212000800044F7FF370000E100E0014B186823
S31508002130704700BF38100020084B1B6F03F00703D9
S31508002140022B04D0032B05D0012B05D0FEE7044B48
S3150800215018687047034BFBE7034870470080005038
S31508002160381000203C100020002D310108B5FFF77B
S31508002170E3FF054B1B6FC3F303330133B0FBF3F0E7
S31508002180024B186008BD00BF0080005034100020C4
S315080021900048704700B4C404014B1868704700BF74
S315080021A03C100020054B1860054B1B6F03F0070316
S315080021B0032B01D1FFF7DABF704700BF3C100020A0
S315080021C00080005000487047002D31014FF0B4439D
S315080021D09868C0F304400C2822D8DFE800F00921EB
S315080021E021212121071719211B1D1F000F487047A0
S315080021F09B6803F04073B3F1807F13D0B3F1007F7F
S3150800220012D00B4A002B08BF104670470948704782
S315080022100948704709487047094870470948704790
S31508002220002070470848704708487047405DC60058
S3150800223000093D000024F400C0EA210180BA8C019F
S315080022400048E801005A620280841E0040420F00DE
S31508002250014B1868704700BF4010002005490A68FE
S315080022601318054883428CBF4FF0FF320B601046A7
S31508002270704700BF44100020000004202DE9FF47E6
S31508002280044618B92C21544807F014F92368B3F109
S31508002290B64F0AD0514A934200F0838042214E48F5
S315080022A004B0BDE8F04707F005B92E20012100F07B
S315080022B0E3FD01230A226179207902F0C5F9012399
S315080022C00A22E179A07902F0BFF909260127DFF889
S315080022D01081DFF81091257994F805A0002D62D0B9
S315080022E0012D03D0022D5ED0032D04D13F2323FAFE
S315080022F00AF3DA0704D440F2FE31404607F0DAF86A
S31508002300302202FB059507FA0AF305F501552B60FD
S31508002310642004F043FB257994F805A0002D45D0E8
S31508002320012D03D0022D41D0032D04D13F2323FADA
S315080023300AF3DB0704D440F22D41404607F0BAF809
S31508002340302202FB059507FA0AF305F58255642043
S315080023502B6004F023FB013EBDD12068B0F1B64FD7
S3150800236027D10323C9F8E8346279237943EA02437B
S31508002370C9F8EC34E279A37943EA0243C9F8F034A0
S3150800238040F20113ADF80030E36869460293A3688A
S315080023900193237C8DF80C3002F032FA04B0BDE8C4
S315080023A0F0872F2082E740F2FF33A0E740F2FF33A1
S315080023B0BDE70A4B9842E3D10323C9F8F83462799A
S315080023C0237943EA0243C9F8FC34E279A37943EA5C
S315080023D00243C9F80035D3E74AA40008008006502E
S315080023E0ADA4000800C0035038B5054602F04CFB02
S315080023F0044C012801D1013C00D138BD284602F021
S3150800240031FAF6E7E19304002DE9F04F85B09A46D4
S31508002410554B06461B780F461546DDF83C909DF849
S3150800242044B0DDF85080002B00F08D80072A00F2BA
S315080024308C800E9B002B00F08880B9F1000F00F00D
S315080024408480129BB3F5006F7FDC012802D1109BB4
S31508002450002B7AD0454B03EB05131B7B002B76D05C
S31508002460434C10220021684607F0D2FA04EB4514C3
S315080024701022002F59D13946204607F0C9FA43F2EF
S3150800248010036380BBF1000F03D1E37843F0030325
S31508002490E370374A0E9B02EB451CCCE90193129B6D
S315080024A06901013BC3F30A009DF84C30012E03F085
S315080024B003034FEA836343EA001E53582D48CDF8B9
S315080024C000A000EA03004EEA0003535041D113234B
S315080024D00CF1100ECCF80C309CE80F008EE80F00BB
S315080024E06FF00301DCF81C20109B61F39F02012F9B
S315080024F0CCF81C20CCF8143003D1CCF81890CCF8C2
S3150800250004300027194A290102EB051342F8018015
S31508002510159A28465A60694622469F605E7302F0FD
S3150800252069FF384605B0BDE8F08F0021204607F060
S315080025306FFA4FF444736380BBF1000FA9D1E378B7
S3150800254043F03003A4E70C48ECE70C48EAE70C48EC
S31508002550E8E7B8F1000FD4D19CF8023068F3041309
S315080025608CF80230CDE700BF72160020B4130020A5
S31508002570341400200F80FFF3028000F0018000F081
S31508002580078000F038B5124B05461B78DBB1E0B181
S3150800259006F0EBFF0F4A00231146147B54B92B6053
S315080025A001251A0101EB03131D738C5006F0E3FF96
S315080025B0204638BD0133082B02F11002EDD106F092
S315080025C0DAFF0548F5E70548F3E70548F1E700BFF0
S315080025D072160020B4130020048000F0028000F078
S315080025E0018000F013B506F0C0FF00230B4A147BE8
S315080025F07CB90133082B02F11002F8D1019002F0E0
S315080026006FFE074B01981C7006F0B5FF204602B016
S3150800261010BD06F0B0FF0348F9E700BFB413002069
S3150800262072160020058000F010B50D4B04461B7885
S3150800263093B1072812D806F098FF0A4B03EB041348
S315080026401A7B2AB100241C7306F095FF204610BD9C
S3150800265006F091FF0448FAE70448F8E70448F6E765
S3150800266072160020B4130020068000F0028000F0E5
S31508002670018000F013B5154B1868002301908DF8FA
S31508002680043006F072FF124B1C7824B106F073FF73
S31508002690104802B010BD01221A7006F06CFF0E4BEE
S315080026A001A81C731C7783F82C4083F83C4083F8F8
S315080026B04C4083F85C4083F86C4083F87C400823E0
S315080026C08DF8073002F04CFE2046E2E706A5000822
S315080026D072160020038000F0B413002008B50A4AD9
S315080026E012785AB107280BD8084A02EB00131B7B4D
S315080026F043B1002102F012FE002008BD0448FCE7A1
S315080027000448FAE70448F8E772160020B4130020D4
S31508002710028000F0018000F0078000F008B50A4A40
S3150800272012785AB107280BD8084A02EB00131B7B0C
S3150800273043B1012102F0F2FD002008BD0448FCE780
S315080027400448FAE70448F8E772160020B413002094
S31508002750028000F0018000F0078000F008B50A4A00
S31508002760127852B107280AD8084A02EB00131B7BD5
S315080027703BB102F0C1FE002008BD0548FCE705484C
S31508002780FAE70548F8E700BF72160020B4130020E0
S31508002790028000F0018000F0078000F00D4B1B78E6
S315080027A093B1072812D889B10B4B03EB00131B7B97
S315080027B073B10A4B1A6D012303FA00F010401ABFD1
S315080027C000200B7008707047054870470548704729
S315080027D00548704772160020B41300200000045004
S315080027E0028000F0018000F0078000F010B50B4A67
S315080027F00C46127862B107280CD859B1084A02EB80
S3150800280000131B7B43B102F093FE2070002010BD1D
S315080028100448FCE70448FAE70448F8E7721600207B
S31508002820B4130020028000F0018000F0078000F059
S315080028302DE9F843174B1F6D5B6D1F4000D5FEE76A
S3150800284001260025144CDFF85480DFF854903742EF
S3150800285017D02368C8F850609BB1A1682846013193
S315080028606268A1609847637B012B0AD148B909EBD6
S3150800287045131A7B60F341021A731A7F60F341020B
S315080028801A770135082D4FEA460604F11004DED101
S31508002890BDE8F88300000450B4130020002004505B
S315080028A034140020044BD3F88420D206FBD4D3F882
S315080028B08400C0F3811070470040005038B5124BB1
S315080028C00546D3F880300C4603F00303022B0BD0E1
S315080028D0032B0DD0012B0FD1FFF72EFC0E2305B1CC
S315080028E0286004B1236038BDFFF770FC0723F6E7BC
S315080028F0FFF71CFC0623F2E7044841F2F80106F04C
S31508002900D9FD00231846EAE7008000500AA500080A
S3150800291038B5194B0546D3F820310C4603F00703A2
S31508002920013B052B20D8DFE803F0030B130F171B19
S31508002930FFF7FCFB052305B1286004B1236038BD09
S31508002940FFF72AFC0323F6E7FFF740FC0723F2E725
S31508002950FFF738FC0223EEE7FFF7E8FB0623EAE772
S31508002960FFF71AFC0423E6E7044841F2711106F062
S31508002970A1FD00231846DEE7008000500AA50008DE
S3150800298038B5194B0546D3F828310C4603F007032A
S31508002990013B052B20D8DFE803F003131B0F0B17A9
S315080029A0FFF7C4FB052305B1286004B1236038BDD1
S315080029B0FFF7BCFB0623F6E7FFF708FC0723F2E759
S315080029C0FFF7EAFB0323EEE7FFF7E6FB0423EAE754
S315080029D0FFF7F8FB0223E6E7044840F67D7106F0A8
S315080029E069FD00231846DEE7008000500AA50008A6
S315080029F0F7B50027144B0197D3F88041064604F033
S31508002A000304022C0D4614D0032C0DD0012C14D12E
S31508002A10394601A8FFF77CFF10240EB1019B3360ED
S31508002A2005B12C6003B0F0BDFFF7D0FB0724019079
S31508002A30F3E7FFF7C7FB0190EFE741F2BE21034832
S31508002A4006F038FD3C46E8E7008000500AA5000875
S31508002A5037B500230193184B0546D3F820320C46A8
S31508002A6003F00703013B032B1ED8DFE803F0020E31
S31508002A701318002101A8FFF783FF12230DB1019A4D
S31508002A802A6004B1236003B030BDFFF79FFB07231C
S31508002A900190F3E706F008FD0A230190EEE7FFF739
S31508002AA0D7FB09230190E9E740F63C71034806F095
S31508002AB001FD0023E2E700BF008000500AA50008D8
S31508002AC038B5124B0546D3F840310C4603F00303DC
S31508002AD0022B0BD0032B0DD0012B0FD106F0E4FCF3
S31508002AE00A2305B1286004B1236038BDFFF7B0FB9F
S31508002AF00923F6E706F0DBFC0C23F2E7044841F26B
S31508002B009F1106F0D7FC00231846EAE7008000501C
S31508002B100AA5000837B500230193184B0546D3F8D4
S31508002B2060320C4603F00703013B032B1FD8DFE88E
S31508002B3003F0020E1914002101A8FFF7E9FE10237D
S31508002B400DB1019A2A6004B1236003B030BD00219B
S31508002B5001A8FFF7B5FF1123F2E7FFF737FB0723B5
S31508002B600190EDE7FFF72EFB02230190E8E740F618
S31508002B70E171034806F09EFC0023E1E7008000505F
S31508002B800AA5000837B500230193184B0546D3F864
S31508002B9094320C4603F00703013B032B1FD8DFE8EA
S31508002BA003F0020E1914002101A8FFF7B1FE102345
S31508002BB00DB1019A2A6004B1236003B030BD00212B
S31508002BC001A8FFF77DFF1123F2E7FFF7FFFA0723B6
S31508002BD00190EDE7FFF7F6FA02230190E8E741F2E4
S31508002BE01401034806F066FC0023E1E70080005064
S31508002BF00AA5000873B500240F4B0194D3F8703268
S31508002C00064603F00303012B0D4607D0022B11D00D
S31508002C1041F23F01094806F04DFC04E0214601A8AF
S31508002C20FFF74EFF11240EB1019B336005B12C60EE
S31508002C3002B070BD1524F6E7008000500AA500080A
S31508002C4038B5154B0546D3F800320C4603F0070392
S31508002C50013B032B18D8DFE803F0020A0E1206F030
S31508002C6023FC0A2305B1286004B1236038BDFFF7A9
S31508002C70EFFA0923F6E706F01AFC0C23F2E7FFF74A
S31508002C8075FA0F23800AEDE7044841F2743106F01D
S31508002C9011FC00231846E5E7008000500AA5000845
S31508002CA038B5154B0546D3F808320C4603F007032A
S31508002CB0013B032B18D8DFE803F0020A0E1206F0D0
S31508002CC0F3FB0A2305B1286004B1236038BDFFF77A
S31508002CD0BFFA0923F6E706F0EAFB0C23F2E7FFF74B
S31508002CE045FA0F23800AEDE7044841F2A83106F0B9
S31508002CF0E1FB00231846E5E7008000500AA5000816
S31508002D0038B5124B0546D3F840320C4603F0030398
S31508002D10022B0BD0032B0DD0012B0FD106F0C4FBD1
S31508002D200A2305B1286004B1236038BDFFF790FA7D
S31508002D300923F6E706F0BBFB0C23F2E7044841F249
S31508002D40373106F0B7FB00231846EAE70080005043
S31508002D500AA5000838B5124B0546D3F860310C466B
S31508002D6003F00303022B0BD0032B0DD0012B0FD13D
S31508002D7006F09AFB0A2305B1286004B1236038BD22
S31508002D80FFF766FA0923F6E706F091FB0C23F2E74C
S31508002D90044841F2CD1106F08DFB00231846EAE7F8
S31508002DA0008000500AA5000810B5B0F5207F2ED087
S31508002DB009D8B0F5007F24D003D868B1B0F5C07F34
S31508002DC00AD000241BE0B0F5607FFAD1124BD3F885
S31508002DD08040C4F3011412E00F4B1C6F230B13F051
S31508002DE00E0FC4F303340AD0032C08D0072C06D0E0
S31508002DF00F2C04D04FF41D71084806F05BFB601CCD
S31508002E0010BD054BD3F89040C4F30464F7E7024BB2
S31508002E101C6FC4F38024F2E7008000500AA500085E
S31508002E2038B54FF48032104B04469A6600200D469A
S31508002E30FFF7BAFF41F671320C4B6043DC69DA637F
S31508002E405A6804F4803422F440125DB9084988426D
S31508002E508CBF4FF480100020104358600CB100223C
S31508002E60DA6338BD0349F2E70090005000000350CA
S31508002E70005A6202002D310170B5440905460E4616
S31508002E800ED140F21B310F4806F014FB05F01F0562
S31508002E90AEB104F58053012000FA05F51D6070BD3A
S31508002EA0012C08D0022C08D040F22531054806F03E
S31508002EB001FB0024EAE7044CE8E7044CE6E704F5DE
S31508002EC00053E8E70AA500086480005068800050AF
S31508002ED030B585B0002180280446CDE9001100F000
S31508002EE09F8035D85E2846D85E2844D8DFE800F0AB
S31508002EF09E43434343434343434343434343434339
S31508002F004343434343434343434343434343434383
S31508002F109EAA9EAAB9B9B9B9B9AAC350D97450AA72
S31508002F20AAAA4343434343434343AAAAAA7CE3AA20
S31508002F3043434343434343434343434343B99E9E27
S31508002F409EDE5050E88B61BE4343434343939E0045
S31508002F50B0F5B06F00F08F8030D8B0F5207F71D013
S31508002F600FD8B0F5C07F61D0B0F5007F61D0B0F55D
S31508002F70807F00F085804FF48F61544806F09AFAF6
S31508002F8051E0B0F5607F67D00DD8B0F5407FF2D13B
S31508002F90FFF7ECF804464FF42070FFF705FFB4FB83
S31508002FA0F0F040083EE0B0F5806F5AD0B0F5A06F5B
S31508002FB0E1D100216846FFF74BFD34E0B0F5106F0C
S31508002FC074D016D8B0F5E06F75D00AD8B0F5C06FD2
S31508002FD067D0B0F5D06FCED100216846FFF730FE36
S31508002FE021E0B0F5F06FC6D100216846FFF7B2FEC2
S31508002FF019E0B0F5406F39D00AD8B0F5206F5FD028
S31508003000B0F5286FB7D100216846FFF7F3FD0AE04F
S31508003010B0F5486FAFD100216846FFF7B3FD02E06F
S31508003020FFF78AF80090009805B030BDFFF79EF8C4
S31508003030F8E7FFF781F805462046FFF7B5FEB5FB2A
S31508003040F0F0EFE7FFF792F804464FF42070FFF729
S31508003050ABFEB4FBF0F0E5E701A8FFF72FFC019DF6
S31508003060EAE700216846FFF753FCDCE700216846DB
S31508003070FFF786FCD7E700216846FFF7B9FCD2E7D9
S315080030804FF0E02302911B695B0705D5FFF76EF841
S315080030900290029B0093C6E703A902A8FFF710FD5A
S315080030A0F7E700216846FFF70BFDBCE700216846F5
S315080030B0FFF7F6FDB7E700216846FFF721FEB2E7FE
S315080030C000216846FFF726FDADE700BF0AA5000800
S315080030D008B58020FFF7FCFE034B98429EBF4FF4CD
S315080030E08032024B1A6708BD005A620200A00050DF
S315080030F01FB50023B0F5807F019300F0C38064D824
S315080031005D2855D84C2806D82D2847D823282BD8EB
S3150800311040F25951A5E04D381028F9D801A353F8C3
S3150800312020F000BF7B320008113100081131000879
S31508003130113100082D32000811310008113100083C
S31508003140013300084B320008F1310008F732000855
S315080031501131000811310008113100081131000839
S31508003160113100080B33000824380928D0D801A3E8
S3150800317053F820F07B3200087B3200087B320008C7
S315080031807B3200087B320008113100086B320008D8
S31508003190113100080D320008B13200083D2800F050
S315080031A082803E28B4D1002001A9FFF7A9FD60E07E
S315080031B08028ADD1574B1B6F03F00703013B032B48
S315080031C04DD8DFE803F04A47878FB0F5F06F6AD02D
S315080031D021D8B0F5B06F48D00FD8B0F5607F00F0B1
S315080031E0858095D3B0F5806F47D0B0F5A06F8FD1A5
S315080031F0002001A9FFF72CFC3BE0B0F5D06F57D0B3
S31508003200B0F5E06FCFD0B0F5C06F81D1002001A92D
S31508003210FFF756FC2DE0B0F5206F71D00BD8B0F54E
S31508003220086F4AD0B0F5106F7FF472AF002001A97D
S31508003230FFF736FD1DE0B0F5406F5CD0B0F5486F7E
S3150800324063D0B0F5286F7FF463AF002001A9FFF7BC
S31508003250D1FC0EE0052301930BE00223FBE740F2C5
S31508003260AA412D4806F026F903E0002001A9FFF738
S31508003270BFFB019805B05DF804FB002001A9FFF724
S3150800328047FBF6E702934FF0E0231B695B0705D57A
S31508003290FEF76CFF0D230393039BDCE703A902A843
S315080032A0FFF70EFCF8E7002001A9FFF753FDE0E75A
S315080032B0002001A9FFF7C4FCDBE7164BD3F8003161
S315080032C003F00303022B07D0032B09D0012B0BD1E4
S315080032D0FEF762FF0323BEE7FEF7BAFF0923BAE744
S315080032E006F0E0F80823B6E70123B4E7184601A973
S315080032F0FFF7E4FABDE7002001A9FFF741FBB8E7AD
S31508003300002001A9FFF706FCB3E7002001A9FFF793
S3150800331039FCAEE7008000500AA500084FF4801279
S31508003320034B5A664FF48032024B9A62704700BFCD
S31508003330009000500050005A38B5036804460F2B19
S3150800334004D940F6F2217A4806F0B4F863680F2BE0
S3150800335004D940F6F521764806F0ACF8A3680F2B99
S3150800336004D940F6F821724806F0A4F8237B0F2BFF
S3150800337004D940F6FB216E4806F09CF8637B0F2BB8
S3150800338004D940F6FE216A4806F094F8A37B3F2B41
S3150800339004D940F60131664806F08CF8E37B3F2BEA
S315080033A004D940F60431624806F084F82369032BF1
S315080033B004D940F607315E4806F07CF86369032BAA
S315080033C004D940F60A315A4806F074F8E369032B23
S315080033D004D940F60D31564806F06CF88020FFF700
S315080033E087FE032800F083804FF48012514B4FF07C
S315080033F0A0615A6645F60E034F4AC2F880304F4B15
S3150800340099624FF4803103F580539962916D11F4F6
S315080034108031FBD1D4E900031B0543EA0063E07B56
S315080034200343207B43EA0043607B43EA0033A07BE7
S3150800343043EA801313619069D4E904531B0643EAEF
S31508003440856300F000400343A07EE57E0343207EAB
S3150800345043EA0043607E43EA00239361E069136A06
S3150800346000280CBF0022082223F00F0343EA0003BA
S3150800347043EA850343EA02032F4A314D136237D1E3
S3150800348094F82430916A94F82000DB000D4043EA52
S31508003490401394F821102B4343EA011343F4803375
S315080034A09362284B916D33EA0101FBD14FF080718D
S315080034B0224881621369A56823F4700343EA055319
S315080034C013614FF00043836194F822300BB91E4B09
S315080034D0996294F823301BB94FF480321A4B9A62DA
S315080034E094F825301BB1144B184AC3F8802038BD10
S315080034F0022808D11161164891614FF408524FF419
S315080035007F4105F0F2FF0C4994F822308A6A94F854
S3150800351020001B06154043EA401394F824202B4349
S3150800352043EAC20394F8232043EA02438B62D7E7AF
S315080035300AA50008009000500040005A0050005AA2
S31508003540C7FFFEFE030001000060005AF1A7FFFF57
S315080035503440005A014B93F9000070471D120020B1
S3150800356010B543680446072B04D940F614512A4877
S3150800357005F0A0FFA368032B04D940F61651264888
S3150800358005F098FF2378032B04D940F618512248F2
S3150800359005F090FF94F90130002B04DA40F61A5131
S315080035A01D4805F087FF4FF400011C4A63785166F1
S315080035B04FF4D151022002F5B832516218494F2B07
S315080035C048604FF0010028BF4F2301F5805148603D
S315080035D01169C903FCD4217843EA01235361D4E96C
S315080035E001131B0143EA0123617B0B43217B43EA59
S315080035F041039360E37BA17B1B0143EA4113617C92
S315080036000B43217C43EA41035360A37C13B16FF457
S31508003610D153536210BD00BF0AA5000800900050A0
S3150800362000100250014B1880704700BF1812002086
S3150800363038B5B0F5207F77D00ED8B0F5007F61D0C9
S3150800364003D890B3B0F5C07F2FD040F2FE21BDE875
S3150800365038403D4805F02EBFB0F5607FF5D13B4AAE
S315080036604C1ED2F8FC5015F080751EBFD2F8FC30FF
S3150800367023F08073C2F8FC30032C04D940F2DF2112
S31508003680314805F017FF324BD3F8801021F030018E
S3150800369041EA0411C3F8801035B12C4AD2F8FC303F
S315080036A043F08073C2F8FC3038BD102901F1FF34AD
S315080036B004D8284B23FA01F1CB0704D440F2B521EC
S315080036C0214805F0F7FE05F021FF05F02DFF4FF420
S315080036D08031214B1E4A1967136F23F4704343EA5E
S315080036E004331367FEF742FD0446FFF7DBF8C0F123
S315080036F00201204605F012FF00F040F8BDE8384008
S31508003700FFF7E6BC4C1E1F2C04D940F2F2210E48E6
S3150800371005F0D0FE0E4BD3F8901021F0F85141EA8F
S315080037200461C3F89010BFE74C1E012C04D94FF46E
S315080037303E71054805F0BEFE054B196F21F4806100
S3150800374041EA84211967AFE70AA5000800ED00E001
S3150800375000800050160101000090005008B50121B4
S31508003760022000F00FFB05F0D1FE05F0DDFE4FF458
S315080037708032014B1A6708BD0090005008B54FF417
S31508003780C070FFF7A5FBBDE80840044988428CBF16
S31508003790022101214FF42070FFF74ABF80F0FA0298
S315080037A0F8B5B0F5807F0C4600F062816CD85D28CC
S315080037B05ED84C2806D82D2846D823282AD84FF470
S315080037C00F618FE14D381028F9D801A353F820F07E
S315080037D0473A0008BF370008BF370008BF37000858
S315080037E027390008BF370008BF370008C33C000860
S315080037F059390008B53800088B3C0008BF3700085F
S31508003800BF370008BF370008BF370008BF370008B2
S31508003810033D000824380928D1D801A353F820F01D
S31508003820473A0008473A0008473A0008473A000866
S31508003830473A0008BF370008153A0008BF3700089E
S31508003840EF3800084F3B00083D2800F06B813E2802
S31508003850B5D1093C032C00F22D82A84B195DA84A64
S31508003860D2F8403223F003030B43C2F84032B3E0E8
S315080038708028A4D18B1E062B00F2C180DFE803F056
S31508003880BCADBFC7BFBF8100B0F5F06F00F04A817D
S315080038903CD8B0F5B06F00F0BD801DD8B0F5607F9C
S315080038A000F0AB818BD3B0F5806F00F0CC80B0F51B
S315080038B0A06F84D1073C0B2C00F2DE81DFE814F000
S315080038C0CE01DC01DA01D801D801DC01DC01DC011A
S315080038D0DC01DC01DC01E301B0F5D06F00F03781D3
S315080038E0B0F5E06FB5D0B0F5C06F7FF468AF093CAE
S315080038F0032C00F2FC80834B195D814AD2F84031D3
S3150800390023F003030B43C2F8403165E0B0F5206F9E
S3150800391000F0D78114D8B0F5086F00F04F81B0F5E4
S31508003920106F7FF44CAF093C062C00F23E81DFE8AD
S3150800393014F02E014301430138013C013C013A01D0
S31508003940B0F5406F00F0A181B0F5486F00F0D9815D
S31508003950B0F5286F7FF433AF112C00F0F281152CE7
S3150800396000F0F18140F6BE01674805F0A3FD00228C
S315080039706349D1F8703223F003031343C1F8703258
S315080039802AE0002504264FF480370121022000F0A2
S31508003990F9F905F0BBFD05F0C7FD5C4B584A1F67F2
S315080039A0136F23F0070333431367FEF7DFFB06465F
S315080039B0FEF778FFC0F10201304605F0AFFD0121A0
S315080039C0002000F037FAFFF7D9FEFFF781FB1DB993
S315080039D0032C01D14E4B9F62F8BD4FF480124B4B1E
S315080039E00E465A664FF480324A4B9D6A03F5805359
S315080039F0C5F300659A62C6E700250126C3E70025D8
S31508003A004FF4C261404805F055FD2E46BBE7002538
S31508003A100226B8E7072C12D0102C12D0022C05D09B
S31508003A2040F25561384805F045FD0024344BD3F87B
S31508003A30801121F003010C43C3F88041CCE703242D
S31508003A40F4E70124F2E7023C052C0AD8324B195D4B
S31508003A502B4AD2F8203123F007030B43C2F8203152
S31508003A60BAE740F28C61284805F024FD0021EFE70B
S31508003A70A1F10904082C33D8DFE804F0050532055E
S31508003A801C32323205004FF480321D4B2349586EE2
S31508003A9003F580535A664B6A43F001034B62C10330
S31508003AA05CBF1F4B5A664FF0E022136923F00403EC
S31508003AB0136191E74FF48032114B1849586E03F59C
S31508003AC080535A664B6A23F001034B62C3035CBFFB
S31508003AD0134B5A664FF0E022136943F00403E7E7F5
S31508003AE040F2B461BDE8F840074805F0E3BC4FF47E
S31508003AF0DA61054805F0DEFC0021FEE668A5000847
S31508003B000080005068A500080AA50008009000502B
S31508003B100060005A0040005A62A5000800C007501D
S31508003B2000A00050093C032C0AD8884B195D884A26
S31508003B30D2F8603123F003030B43C2F860314BE738
S31508003B4040F2EE61834805F0B5FC0021EFE7093C39
S31508003B50062C13D8DFE804F00419190E1212100007
S31508003B6002227B49D1F8003223F007031343C1F838
S31508003B70003231E70322F4E70422F2E740F2337118
S31508003B80744805F097FC0022EBE70122E9E70222D8
S31508003B906F49D1F8083223F007031343C1F80832F6
S31508003BA01AE70322F4E70422F2E740F25371694860
S31508003BB005F080FC0022EBE70122E9E74C1E082C01
S31508003BC012D8DFE804F0161118111111110F0500AB
S31508003BD002225F49D1F8003123F003031343C1F8E9
S31508003BE00031F9E60322F4E740F26F71594805F00F
S31508003BF061FC0022EDE70122EBE7574AD2F8FC50B8
S31508003C0015F080751EBFD2F8FC3023F08073C2F819
S31508003C10FC3007291CD00E291CD006291CD040F2DE
S31508003C209E714C4805F046FC00224949D1F880307F
S31508003C3023F003031343C1F88030002D3FF4CCAEC4
S31508003C40454AD2F8FC3043F08073C2F8FC30C3E62C
S31508003C500222EAE70122E8E70322E6E702223C49D4
S31508003C60D1F8203223F007031343C1F82032B3E614
S31508003C700322F4E70422F2E740F2EF71354805F033
S31508003C8019FC0022EBE70122E9E7023C052C0AD8D9
S31508003C90324B195D2E4AD2F8283123F007030B431D
S31508003CA0C2F8283198E64FF402612A4805F002FC6A
S31508003CB00021EFE740F65A01264805F0FBFB0021F4
S31508003CC0CDE5102C17D012D8022C16D0072C16D0FA
S31508003CD04FF409611F4805F0EDFB00221C49D1F895
S31508003CE0603223F007031343C1F8603274E6112CDF
S31508003CF0EED10222F2E70122F0E70322EEE70422E0
S31508003D00ECE7102C17D012D8022C16D0072C16D098
S31508003D1040F6A8010F4805F0CDFB00220C49D1F862
S31508003D20943223F007031343C1F8943254E6112C56
S31508003D30EED10222F2E70122F0E70322EEE704229F
S31508003D40ECE7012214E6022212E600BF68A5000885
S31508003D50008000500AA5000800ED00E062A50008F2
S31508003D60024A536B0342FCD1704700BF004009501A
S31508003D70034A0179D36E23F030030B43D3667047A9
S31508003D80004000502DE9F0410446264BD3F8842024
S31508003D90D006FBD4D3F88430C3F381139C423ED0BB
S31508003DA0FEF7CAF9012C05460BD11F4B984204D9D8
S31508003DB040F23C711D4805F07DFB0121284605F0BF
S31508003DC0ADFB05F0CBFB4FF00072194B07465A6660
S31508003DD0204605F0D3FB4FF48063124E621E9340D3
S31508003DE0DFF848803367736E9A0103D4D6F88430B7
S31508003DF09B060AD5384605F0B5FB022C0FD1284696
S31508003E00BDE8F041002105F089BBD6F88430990653
S31508003E10E9D540F24A71404605F04CFBE3E7BDE8B8
S31508003E20F08100BF00400050005A62026CA50008ED
S31508003E300060005007B518B90191FEF77DF90199A0
S31508003E40064B1B7843B1064B984205D8012003B0B0
S31508003E505DF804EBFFF796BF0220F8E7731600201B
S31508003E60005A620210B54FF00042154B15495A66C2
S31508003E704AF6CD334C6C0B6404F0010488B9012072
S31508003E80FFF76EFF4B68DB0704D50F4B58600B6BCB
S31508003E90D807FCD514B10B4B0C4A1A6405F06FFB16
S31508003EA010BD0B6B1A07FCD42022074B9A6201221D
S31508003EB0A3F580535A60034A936A9B06FCD5E9E743
S31508003EC00090005000400950006009503254FFFF2E
S31508003ED038B54FF00042164B01465A664AF6CD33BE
S31508003EE0144C154A656C236443780B205B0043F039
S31508003EF00103D363FFF734FF63688A7823F4F87302
S31508003F0043EA02136360CA784B7943EA0223A36043
S31508003F100A798B7943EA022323610878FFF7A2FF1F
S31508003F20EB0744BF054B236405F029FB012038BD88
S31508003F300090005000400950004000503254FFFFE6
S31508003F4070B50F28044604D940F6C251134805F047
S31508003F50B1FA4FF00042124B12495D6E03F58053D9
S31508003F605A664AF6CD334E6C80200B64FFF7F8FE8E
S31508003F700B6A23F00F030F2C94BF234343F00F0360
S31508003F800B62F30744BF084B0B64002DA2BF4FF02A
S31508003F900042064B5A6605F0F2FA70BD6CA5000899
S31508003FA000800050004009503254FFFF00A0005026
S31508003FB010B505F0E9FA042300F5805100F5005222
S31508003FC00B6113610B6113610B6113610B61136163
S31508003FD0202341F2020103610023C360836041612B
S31508003FE04FF4A0218361836541620549C361036279
S31508003FF08362C36243630365D164036310BD00BF74
S31508004000FF3F0D0338B5174B044698420D4607D0B7
S31508004010154B984204D040F26511144805F04AFA47
S3150800402025B92046BDE8384005F0AEBA012204F5A8
S3150800403080535A6040F6FF71204605F00F0205F0DE
S315080040409FFAA263782105F09BFA05F001036A0737
S3150800405048BF43F00203A26C02F003029A42FAD167
S3150800406038BD00BF0000015B00000A50C4A5000867
S315080040702DE9F04105460C46174622B940F22321A0
S315080040806D4805F017FA6D4B9D4200F0C9806C4BE0
S315080040909D4200F0CA8040F22621674805F00AFAD8
S315080040A044B940F27531644805F004FA2046FEF733
S315080040B00FFF0446AB68D80744D5BC4204D24FF478
S315080040C00C715D4805F0F6F96B6803F00108B4FB5E
S315080040D0F7F35C1EFF2C04D94FF40E71564805F011
S315080040E0E9F9B8F1000F2BD02821284605F048FA3F
S315080040F0AB6C99071ED1AB6CDA071DD4AE6C16F003
S3150800410002061BD140F245214B4805F0D3F9284653
S3150800411005F03AFA2B6923F07F4343EA04632B61DF
S31508004120B8F1000F00F0868031462846BDE8F04118
S31508004130FFF768BF0526EAE70926E8E70626E6E761
S315080041404646E7E76B68012B04D04FF416713A48E8
S3150800415005F0B0F9AB6DA968DB0701F0E00148BFCF
S315080041607F00402946D009D8B9B1202938D040F275
S315080041709A21BDE8F041304805F09CB9602945D040
S315080041808029F4D107EB4703A34204D94FF42571DC
S31508004190294805F08FF9012308E0B7EB141F04D965
S315080041A04FF42071244805F085F910237B436401F8
S315080041B0B4FBF3F3234E203BB6EBC30F4FEAC3041D
S315080041C004D240F2A5211C4805F074F9284634406B
S315080041D0012105F0D5F92C63BDE8F04105F0D0B909
S315080041E0B7EBD40F04D940F28521134805F062F9DC
S315080041F00823DBE70626B4FBF6F3BB4204D240F2FB
S315080042008A210D4805F056F93346CFE7B7EB940FE8
S3150800421004D940F28F21084805F04CF90423C5E774
S31508004220002C7FF447AF562440E7002C7FF442AFBA
S3150800423057243BE7BDE8F081C4A500080000015BF0
S3150800424000000A50F8FF7F00F8B51E46436804468A
S315080042500D4617461BB140F6FF7105F091F9204649
S31508004260FFF7A6FEE9896B7B62690B43298A22F46C
S315080042704C520B4322F00F0213436361A2682B7E54
S31508004280297B22F0804222F0E202194311436A692F
S315080042901143AA68A1601AB9A26842F00042A26056
S315080042A0E869002860D0A268017A42EA8152A260D1
S315080042B0A268817A42EA4142A2608288A16802F431
S315080042C0C0420A43A260A268417842EA8102A2601B
S315080042D0A268417B42EAC102A260A268817B42EAE7
S315080042E00112A260A268817842EA8122A260C2799C
S315080042F08179520242EA8122E260027802F0FD01E7
S31508004300012908BFE168A2F1020204BF41F00401D5
S31508004310E160012A5E495F4A77D88C4273D05E49CC
S315080043208C420CBF01214FF0FF3102EB411241F2E2
S3150800433094414FF0020C42F801C0427A04F58051CC
S315080043408A621AB1E26842F40062E260C27A5AB13D
S31508004350E26842F40042E2604D4A944264D1027B2C
S315080043604E4902F00F024A6747B197F8202004F534
S31508004370805C002A62D00122CCF820207EB304F5A6
S31508004380805013B14FF40043836596F82120404BC3
S31508004390102A434962D89C425ED03F4B9C420CBFD0
S315080043A001234FF0FF330127CF54768C3849B6F5F1
S315080043B0006F3C4B60D88C425CD037498C420CBFAE
S315080043C001214FF0FF3101275F54A36D324323F4D7
S315080043D0F95323F01E031343A365012383650521BF
S315080043E02046FFF70FFEAA681AB120466968FFF74C
S315080043F03FFE20462978FFF705FEA36CDB4313F43E
S31508004400405FFAD1F8BD00218FE78C420AD02249D5
S315080044108C420CBF01214FF0FF3102EB411242F2F0
S31508004420944186E70021F8E71B4A944201BF027BC4
S315080044301A4902F00F02C1F8802095E797F8221072
S31508004440E06997F821200A4320F009010A4342F05F
S315080044500102CCF81C2091E70023A4E79C4207D070
S315080044600D4B9C420CBF01234FF0FF3302279BE7FD
S315080044700023FBE70021A6E78C4207D006498C42B9
S315080044800CBF01214FF0FF3102279DE70021FBE712
S315080044900000015B00C0035000000A500090035062
S315080044A0761600207416002070B5134B0546984200
S315080044B00C4606D0114B984203D07021104804F0E0
S315080044C0F9FF1CB972210E4804F0F4FF237B802BF8
S315080044D003D176210A4804F0EDFF637B032B03D949
S315080044E07921074804F0E6FF002321462846BDE85F
S315080044F070401A46FFF7A8BE0000015B00000A508C
S31508004500C4A5000870B52C4B054698420C4647D002
S315080045108A212A4804F0CEFF34B98C21274804F0B2
S31508004520C9FF254B9D423DD09E21244804F0C2FF79
S31508004530637B032B03D9AA21204804F0BBFF237B06
S31508004540802B03D0AC211D4804F0B4FF6369B3F196
S31508004550804F03D0AE21194804F0ACFF238A23F418
S3150800456000539BB2B3F5805F03D0B021134804F023
S31508004570A1FFA368013BB3F5165F03D3B2210F4829
S3150800458004F098FF002321462846BDE870401A46E5
S31508004590FFF75ABE40F20B13D340DB07C4D5C7E773
S315080045A00029BAD05620FEF7A3FDA0F10902082A71
S315080045B0F0D91228BCD0B7E70000015BC4A50008F3
S315080045C038B50D460446B0B1012803D0022812D0EA
S315080045D0032803D13F23EB40DB0704D440F22D41E7
S315080045E0064804F067FF302001214443044B01FAD2
S315080045F005F51D5138BD40F2FF33ECE7ADA40008C0
S3150800460040D0035038B50D460446B0B1012803D052
S31508004610022812D0032803D13F23EB40DB0704D43A
S3150800462040F2FE31064804F045FF3020012144439C
S31508004630044B01FA05F51D5138BD40F2FF33ECE78E
S31508004640ADA4000840E003502DE9F0410D46174699
S3150800465098460446002835D0012803D0022831D0D0
S31508004660032803D13F23EB40DB0704D44FF4B07192
S315080046701A4804F01FFF37B129462046B8F1000F43
S3150800468023D0FFF79DFF0F21072D04EB440688BFB3
S31508004690A5F108034FEA0616114895BFAB009B0023
S315080046A004360C3607FA03F29940304404F08BFFBF
S315080046B097B929462046B8F1000F09D0BDE8F04160
S315080046C0FFF77EBF40F2FF33CDE7FFF79BFFDAE740
S315080046D0BDE8F041FFF796BFBDE8F0811FA60008C8
S315080046E030C00350F8B506460C4615469ABB40F24C
S315080046F00F11BDE8F8402F4804F0DCBE2E4B9E4251
S3150800470001D12F203DE040F229112A4804F0D2FEBB
S315080047103AE0032F42D0294B3CE06FEAC505054431
S315080047202C44B4FBF0F4013C0AD540F2751121483B
S3150800473004F0C0FE4FF4BB711E4804F0BBFE02E055
S31508004740B4F5007FF6D2B3689B0702D5002C08BFE4
S315080047500124B461F8BD03F00307836823F44073AA
S31508004760836004F0FBFEB26882EA072303F4407311
S315080047705340B36004F0F6FE34B9B6F1B64FBDD176
S315080047802E20FEF7A5FB0446B3689A07C1D5032F6A
S3150800479004D00B4B53F827309C4204D84FF4AF7122
S315080047A0044804F087FE074BD85D6843B5D140F24C
S315080047B06F119EE778A6000800800650DCA6000860
S315080047C0D0A60008E8A6000838B5B0F1B64F0446EA
S315080047D00D4607D0084B984204D040F28F1107487F
S315080047E004F068FE043425B104F5805401232360DF
S315080047F038BD04F50054F9E70080065078A600088D
S3150800480038B5B0F1B64F04460D4607D0124B98425C
S3150800481004D04FF4D271114804F04CFE0023104A1C
S31508004820236404F50053DA636A7804F108037AB955
S3150800483003F5805302221A602046D5E901122B7B24
S31508004840FFF750FF20462978BDE83840FFF7BCBF80
S3150800485003F50053EEE700BF0080065078A600086F
S31508004860FFFF1F002DE9F843B0F1B64F0BD0824B7E
S31508004870984226D0814840F2FB1104F01BFE6FF0E7
S315080048800300BDE8F8837E4B402505264FF0000857
S315080048904FF0030C996800F50054C26B12F4C06F10
S315080048A015D097050FD5FD225A7009221A700022D5
S315080048B0026493F90110012900D15A7093F9010095
S315080048C0DFE7704BE0E75605EFD5FE22ECE71F78E9
S315080048D0082F00F2CD80DFE817F009001F0041001D
S315080048E04C006900740096009E00C2004C880A8835
S315080048F0E5060AD5120A02F0060242F0F002012184
S3150800490019704263C1600120BBE702F0FE02A107ED
S3150800491048BF42F00102F2E7170607D5802100F5E5
S315080049200052D1634FF608721A8062E05206EAD541
S315080049304A88E563D70604D502221A700B784363C2
S31508004940E1E7920765D507221A701B7901EBC301C7
S315080049500B89012BD7D10823C360D4E71706DDD40A
S315080049605206D0D54A88E563970752D583F800C022
S3150800497093E74C880A88E50643BF120A02F0060246
S3150800498042F0F00202F0FE02640709D51C7942F0F3
S31508004990010201EBC4010989012904BF0821C1608C
S315080049A0042119700123C3604263ACE71706B5D426
S315080049B05706A8D54A88E56352072AD507221A70EA
S315080049C0A1E71A795F8801EBC20EBEF80890B945CF
S315080049D011D80132D2B21A714F88A3F8028017F0A3
S315080049E0040FC3D1FF0702D4012A7FF656AF082267
S315080049F01A700223B0E7DEF80420791C5980D25DCC
S31508004A0042630622DBE7170688D457067FF57BAF95
S31508004A10E5631E7041E794067FF575AF20261A797F
S31508004A2000F5005401EBC2010A89456AE6635C8811
S31508004A30A24281BF4968661C5E800D5559888A4224
S31508004A40D5D90424012AC46004D9013A914201D176
S31508004A500822C2601A78092A3FF429AF53E7D2051B
S31508004A607FF551AF4FF4807100F50052D1631CE712
S31508004A704FF609321A801AE70080065078A6000811
S31508004A80341500204015002038B5B0F1B64F04465D
S31508004A900D4644D0254B98423ED040F25E3124481C
S31508004AA004F008FD002D3DD140F25F31204804F0A6
S31508004AB001FDB4F1B64F28D11E4B2269D00744BF79
S31508004AC02022E2606A88910701D5298951B35207E5
S31508004AD001D52A8A32B34FF480721A6000229D608B
S31508004AE01A71C023E3606369DB0513D4202204F539
S31508004AF00053DA63104A2046DA63236C43F4FC63F6
S31508004B002364BDE83840FFF7ADBE084B9C4209D187
S31508004B100A4BD2E7636AE6E70029F9D1C4E7002918
S31508004B20CAD1C1E76FF0030038BD00BF0080065048
S31508004B3078A6000834150020FFFF1F004015002046
S31508004B404369DA01FCD4012300F50050024A4360A8
S31508004B5053689B07FCD4704700400059F8B5354B9D
S31508004B60044698420E46154604D040F205213248BE
S31508004B7004F0A0FC2046FFF7E3FF33782D4803F046
S31508004B8007027378002BB37818BF08214FEA03137E
S31508004B9003F0700343EA0203F27808BF0021002AF3
S31508004BA014BF4FF4807200220B431343C4F88030BD
S31508004BB07379E26A1B0122F0170203F0100313430C
S31508004BC03279002102F0070213432A46E36284423F
S31508004BD024D110290ED10122002004F580535A60F1
S31508004BE0034604358B421BD1B379A0610BB1082368
S31508004BF0E360F8BD937817881B0403F480333B43BE
S31508004C00D7780532002F14BF4FF4003700273B43EF
S31508004C1001F1280744F827300131D8E70021DAE7FF
S31508004C2003EB8307EF5D17B102FA03F73843013345
S31508004C30D8E700BF00400059ECA6000810B5144B91
S31508004C400C46984204D040F25D31124804F032FC1A
S31508004C5074B92A20FEF73CF90446B0B10E4B9842C7
S31508004C6006D90B4B9B68C3F302730133B0FBF3F40D
S31508004C700A4804F5742404F23F24B4FBF0F4601ED9
S31508004C807F2828BF7F20C0B210BD0124F0E700BFEF
S31508004C9000400059ECA60008005A620240420F0084
S31508004CA038B5134B0C469842154604D04FF4667136
S31508004CB0104804F0FFFB24B940F299310D4804F07E
S31508004CC0F9FB0D498C4228BF0C461DB92A20FEF770
S31508004CD0FFF80546621E1544B5FBF4F0A54228BF49
S31508004CE000F1FF30032828BF0320C0B238BD00BF3B
S31508004CF000400059ECA60008005A6202F8B51F46A3
S31508004D00174B0E469842144604D040F2D231154845
S31508004D1004F0D0FB26B940F2D331124804F0CAFB9E
S31508004D20114A124D002F08BF1546B54228BF354611
S31508004D301CB92A20FEF7CCF804469DF8182040F244
S31508004D40FF300132B4FBF2F46A1E1444B4FBF5F3E7
S31508004D50AC4228BF03F1FF33984228BF1846F8BD76
S31508004D6000400059ECA6000880969800404B4C007D
S31508004D7013B5044601A800F0FDFB042C04D8064B25
S31508004D8033F8140002B010BD044840F27F4104F025
S31508004D9091FB0020F6E700BF60A70008ECA6000814
S31508004DA02DE9F04F2DED048B8FB00546DFF828C3AB
S31508004DB008AF0C461646BCE80F000FC79CE8030070
S31508004DC0B94B87E803009D4203D0D921B74804F0C0
S31508004DD071FBB74F002239462846FFF761FF637912
S31508004DE0984238BF18465FFA80FA2846FFF7A8FEA9
S31508004DF0207950B92A20FEF76BF8B842014628BF39
S31508004E00B0FBFAF12846FFF719FFE3784FEA0A7272
S31508004E101B0102F0E04203F030031343000422783A
S31508004E2000F4FE0003430AB143F0020362780AB1B4
S31508004E3043F00403A2780AB143F008030027AB60E5
S31508004E40E38822892B61638943EA02432B62964BE6
S31508004E509D4201D1022F08D1012305F580556B60CB
S31508004E600FB0BDEC048BBDE8F08F00223478914872
S31508004E709149D6F80880944218BF01462346284629
S31508004E80CDF800A0FFF73AFF1FFA88F88045434699
S31508004E9038BF034605EB07120593936C04F003012C
S31508004EA023F0435323F41D1323F4435323F03F0302
S31508004EB01943737830799B0003F01C0C41EA0C0304
S31508004EC0B1784FEA07194901C9B21943F3781B03A8
S31508004ED003F4E0430B43010401F4E0210B43317C66
S31508004EE0490501F460010B437179090701F0405146
S31508004EF00B439364936C714AC3F30233013B042B4F
S31508004F001BD8DFE803F01A1A03121700D2F880211B
S31508004F104FEA124B012C13D9022C00F0198140F2EA
S31508004F20DF11624804F0C6FA84E0D2F884211FFA39
S31508004F3082FBEFE7D2F88421EAE7D2F88021F6E788
S31508004F4005EB09039A6CC2F30232531E012B5B4B25
S31508004F5079D8DFED5B7AD3F880311FFA83F801221E
S31508004F6009F1B24909F58049D9F8481028F4C0432F
S31508004F70C1F3820101F1010C02FA0CFC07EE10CA1A
S31508004F804FEA834B18F4004FB8EEC79AF6EE008A3C
S31508004F904A4A18BF4BF0004B002940F09F80002C6E
S31508004FA07ED1D2F88C2113B208EE103AB8EEC88A30
S31508004FB037EE888A002840F0B48007A800F0DAFAAD
S31508004FC0DFED407ADFED406A86EE897ADFED3F6AEB
S31508004FD067EE887A27EE267AF1EE006ABBF1004F73
S31508004FE007EEA67A0BD0DFED3A6A07EE908A37EE1F
S31508004FF0266AFAEEE87AB0EE667A17EE867AB5EEA3
S31508005000C07AF1EE10FACABFB1EE477A38EEC77A1F
S3150800501037EE687AFDEEC77A17EE902AB2F5003FAA
S31508005020C0F28C806FEA5B436FEA43431E497A1DE0
S3150800503012018B50059B3A01C3F30900254B013732
S315080050409850143603E7032A0FD1D3F880214FEA84
S3150800505012483CB9D3F88C311B1407EE903AF8EE97
S31508005060E77A7CE7D3F89431F6E7042AD3F8842163
S315080050700AD11FFA82F824B9D3F88C311B145B00C5
S31508005080EBE7D3F89431F9E74FEA12482CB9D3F88D
S315080050908C311B1403EB4303DFE7D3F89431F8E7AD
S315080050A0D2F894217FE700BF00400059ECA600081B
S315080050B0005A6202404B4C00809698000080E00F30
S315080050C0000000003D3B843F000080430000204470
S315080050D0000000495440005948A70008ACB9D2F866
S315080050E0902112B207EE102AB8EEC77A77EE677AE1
S315080050F029EE287A6F4A87EE878AD2F8882113B272
S3150800510007EE903AF8EEE77A52E7D2F8982113B20A
S3150800511007EE103AB8EEC77A37EE677A77EE877AEF
S31508005120E6E7D6ED037ADFED646AF8EE677A87EE8E
S31508005130A67AF7EE046AC6EE877A43E712F5003FC9
S31508005140AABFC2F311024BF4003342EA0B036DE720
S31508005150FFF70EFE07EE900A9FED577AF8EE677A8C
S3150800516009F1B24303F580439B6C0EAAC3F34213BD
S3150800517002EB8303C7EE875A53ED066ADFED4F7AD3
S31508005180F4EE676AB7EE006AF1EE10FA1CBF76EE27
S31508005190867A86EEA77A07EE90BADFED498AF8EEA8
S315080051A0677A08BF9FED477A67EEA87A67EE877A2F
S315080051B09FED457A67EE877AF5EEC07AB6EE008AF5
S315080051C0F1EE10FA4CBF77EEC87A77EE887A09F1D5
S315080051D0B24404F58044236DFDEEE77A0023236587
S315080051E017EE903A17EE902A13F4004F236DDFED71
S315080051F0377A18BF43F000432365354B216D03EA20
S3150800520082430B4323652B4BD3F88811D3F8883197
S315080052101BB207EE103AB8EEC77A37EE277ADFEDFB
S315080052202D7A87EEA65A76EE866AB7EE046AC5EE3A
S31508005230267AC6EE256A26EE877AF1EE006A47EEEA
S31508005240267A9FED257A77EE877A17EE900A01F08F
S3150800525035FD07EE90BAB8EEE77A67EE287A80460B
S3150800526017EE900A894601F029FD01F100430290E4
S315080052700393DDE902234046494601F077FD002203
S31508005280164B01F0BDFB02F033F807EE900AF5EE77
S31508005290C07AF1EE10FA4CBF77EEC87A77EE887AC4
S315080052A0FDEEE77A17EE903A226DC3F31103134326
S315080052B02365BFE60080E00F00007A440000B8428C
S315080052C000000038E71B753F00000047000000009B
S315080052D00000FC7F000080480000004900002041D3
S315080052E010B54FF400120B4BC3F88020BFF34F8F55
S315080052F0BFF36F8F0024FF22074B21465C652020F1
S315080053009A625C60FDF7B8FD2146BDE81040212091
S31508005310FDF7B2BD00E100E00000045038B50728EB
S3150800532004460D4603DD7721094804F0C3F81F2C0F
S3150800533003D99121074804F0BDF8074B074A012015
S31508005340002D18BF134600FA04F41C6038BD00BFD0
S315080053506AA70008C3A7000840100450402004505C
S3150800536010B5044618B991211F4804F0A3F823780C
S315080053701B0613F0604F03D092211B4804F09AF8DD
S31508005380E3780F2B03D9A321174804F093F80121DA
S315080053902020FDF771FD01212120FDF76DFD012279
S315080053A0124B5A60227812069A606178A27842EA0D
S315080053B001429A61FF229A6200229A631A644FF0A8
S315080053C000425A654FF0FF324FF4001103F50053BF
S315080053D01A65074AC2F88011E3781B01DBB282F826
S315080053E01533116010BD00BF6AA7000800000450FD
S315080053F000E100E02DE9F0410126C3B20728054681
S315080054000C46904606FA03F603DDEC21364804F00E
S3150800541051F81CB9ED21344804F04CF8236823F4FC
S315080054207C1323F00F031BB1F0212F4804F042F838
S31508005430A37A1B0413F47C0F04D040F209112A48FE
S3150800544004F038F8E37A1B0513F07E6F04D040F2B7
S315080054500B11254804F02EF8237B5B0513F0FE5F3D
S3150800546004D040F20D11204804F024F830201F4FD4
S315080054701F4B617B1E65AB0000FB0575226803F1B7
S31508005480A04303F588235A602966E37AA27A1B05A6
S3150800549043EA0243227B43EA425328F00302EB65C0
S315080054A02A6704F062F87B6D33437B65237A13B170
S315080054B03B6C33433B64637A13B1BB6B3343BB63C7
S315080054C02279A37943EA0243094A93616179E37928
S315080054D043EA014307498B61044B56639E64BDE862
S315080054E0F04104F048B800BF6AA70008000004505D
S315080054F0002004500010045010B50124C3B2072838
